{
  "_format": "hh-sol-artifact-1",
  "contractName": "ERC20Factory",
  "sourceName": "contracts/ERC20Factory.sol",
  "abi": [
    {
      "inputs": [
        {
          "internalType": "string",
          "name": "_name",
          "type": "string"
        },
        {
          "internalType": "string",
          "name": "_symbol",
          "type": "string"
        },
        {
          "internalType": "uint8",
          "name": "_decimal",
          "type": "uint8"
        }
      ],
      "stateMutability": "nonpayable",
      "type": "constructor"
    },
    {
      "anonymous": false,
      "inputs": [
        {
          "indexed": true,
          "internalType": "address",
          "name": "tokenAddress",
          "type": "address"
        },
        {
          "indexed": false,
          "internalType": "string",
          "name": "name",
          "type": "string"
        },
        {
          "indexed": false,
          "internalType": "string",
          "name": "symbol",
          "type": "string"
        }
      ],
      "name": "TokenCreated",
      "type": "event"
    },
    {
      "inputs": [],
      "name": "createToken",
      "outputs": [],
      "stateMutability": "nonpayable",
      "type": "function"
    },
    {
      "inputs": [
        {
          "internalType": "uint256",
          "name": "",
          "type": "uint256"
        }
      ],
      "name": "deployedERC20Tokens",
      "outputs": [
        {
          "internalType": "address",
          "name": "",
          "type": "address"
        }
      ],
      "stateMutability": "view",
      "type": "function"
    },
    {
      "inputs": [],
      "name": "getDeployedTokens",
      "outputs": [
        {
          "internalType": "address[]",
          "name": "",
          "type": "address[]"
        }
      ],
      "stateMutability": "view",
      "type": "function"
    },
    {
      "inputs": [],
      "name": "owner",
      "outputs": [
        {
          "internalType": "address",
          "name": "",
          "type": "address"
        }
      ],
      "stateMutability": "view",
      "type": "function"
    },
    {
      "inputs": [],
      "name": "tokenDecimals",
      "outputs": [
        {
          "internalType": "uint8",
          "name": "",
          "type": "uint8"
        }
      ],
      "stateMutability": "view",
      "type": "function"
    },
    {
      "inputs": [],
      "name": "tokenName",
      "outputs": [
        {
          "internalType": "string",
          "name": "",
          "type": "string"
        }
      ],
      "stateMutability": "view",
      "type": "function"
    },
    {
      "inputs": [],
      "name": "tokenSymbol",
      "outputs": [
        {
          "internalType": "string",
          "name": "",
          "type": "string"
        }
      ],
      "stateMutability": "view",
      "type": "function"
    }
  ],
  "bytecode": "0x608060405234801561001057600080fd5b5060405161276138038061276183398181016040528101906100329190610264565b82600190816100419190610510565b5081600290816100519190610510565b5080600360006101000a81548160ff021916908360ff16021790555033600360016101000a81548173ffffffffffffffffffffffffffffffffffffffff021916908373ffffffffffffffffffffffffffffffffffffffff1602179055505050506105e2565b6000604051905090565b600080fd5b600080fd5b600080fd5b600080fd5b6000601f19601f8301169050919050565b7f4e487b7100000000000000000000000000000000000000000000000000000000600052604160045260246000fd5b61011d826100d4565b810181811067ffffffffffffffff8211171561013c5761013b6100e5565b5b80604052505050565b600061014f6100b6565b905061015b8282610114565b919050565b600067ffffffffffffffff82111561017b5761017a6100e5565b5b610184826100d4565b9050602081019050919050565b60005b838110156101af578082015181840152602081019050610194565b60008484015250505050565b60006101ce6101c984610160565b610145565b9050828152602081018484840111156101ea576101e96100cf565b5b6101f5848285610191565b509392505050565b600082601f830112610212576102116100ca565b5b81516102228482602086016101bb565b91505092915050565b600060ff82169050919050565b6102418161022b565b811461024c57600080fd5b50565b60008151905061025e81610238565b92915050565b60008060006060848603121561027d5761027c6100c0565b5b600084015167ffffffffffffffff81111561029b5761029a6100c5565b5b6102a7868287016101fd565b935050602084015167ffffffffffffffff8111156102c8576102c76100c5565b5b6102d4868287016101fd565b92505060406102e58682870161024f565b9150509250925092565b600081519050919050565b7f4e487b7100000000000000000000000000000000000000000000000000000000600052602260045260246000fd5b6000600282049050600182168061034157607f821691505b602082108103610354576103536102fa565b5b50919050565b60008190508160005260206000209050919050565b60006020601f8301049050919050565b600082821b905092915050565b6000600883026103bc7fffffffffffffffffffffffffffffffffffffffffffffffffffffffffffffffff8261037f565b6103c6868361037f565b95508019841693508086168417925050509392505050565b6000819050919050565b6000819050919050565b600061040d610408610403846103de565b6103e8565b6103de565b9050919050565b6000819050919050565b610427836103f2565b61043b61043382610414565b84845461038c565b825550505050565b600090565b610450610443565b61045b81848461041e565b505050565b5b8181101561047f57610474600082610448565b600181019050610461565b5050565b601f8211156104c4576104958161035a565b61049e8461036f565b810160208510156104ad578190505b6104c16104b98561036f565b830182610460565b50505b505050565b600082821c905092915050565b60006104e7600019846008026104c9565b1980831691505092915050565b600061050083836104d6565b9150826002028217905092915050565b610519826102ef565b67ffffffffffffffff811115610532576105316100e5565b5b61053c8254610329565b610547828285610483565b600060209050601f83116001811461057a5760008415610568578287015190505b61057285826104f4565b8655506105da565b601f1984166105888661035a565b60005b828110156105b05784890151825560018201915060208501945060208101905061058b565b868310156105cd57848901516105c9601f8916826104d6565b8355505b6001600288020188555050505b505050505050565b612170806105f16000396000f3fe608060405234801561001057600080fd5b506004361061007d5760003560e01c80637b61c3201161005b5780637b61c320146100dc5780638da5cb5b146100fa5780638e821da0146101185780639cbf9e36146101485761007d565b80633b97e85614610082578063622ae7aa146100a05780636c02a931146100be575b600080fd5b61008a610152565b60405161009791906104cc565b60405180910390f35b6100a8610165565b6040516100b591906105d7565b60405180910390f35b6100c66101f3565b6040516100d39190610689565b60405180910390f35b6100e4610281565b6040516100f19190610689565b60405180910390f35b61010261030f565b60405161010f91906106ba565b60405180910390f35b610132600480360381019061012d9190610710565b610335565b60405161013f91906106ba565b60405180910390f35b610150610374565b005b600360009054906101000a900460ff1681565b606060008054806020026020016040519081016040528092919081815260200182805480156101e957602002820191906000526020600020905b8160009054906101000a900473ffffffffffffffffffffffffffffffffffffffff1673ffffffffffffffffffffffffffffffffffffffff168152602001906001019080831161019f575b5050505050905090565b600180546102009061076c565b80601f016020809104026020016040519081016040528092919081815260200182805461022c9061076c565b80156102795780601f1061024e57610100808354040283529160200191610279565b820191906000526020600020905b81548152906001019060200180831161025c57829003601f168201915b505050505081565b6002805461028e9061076c565b80601f01602080910402602001604051908101604052809291908181526020018280546102ba9061076c565b80156103075780601f106102dc57610100808354040283529160200191610307565b820191906000526020600020905b8154815290600101906020018083116102ea57829003601f168201915b505050505081565b600360019054906101000a900473ffffffffffffffffffffffffffffffffffffffff1681565b6000818154811061034557600080fd5b906000526020600020016000915054906101000a900473ffffffffffffffffffffffffffffffffffffffff1681565b600060016002600360009054906101000a900460ff16600360019054906101000a900473ffffffffffffffffffffffffffffffffffffffff166040516103b9906104a3565b6103c69493929190610836565b604051809103906000f0801580156103e2573d6000803e3d6000fd5b50905060008190506000819080600181540180825580915050600190039060005260206000200160009091909190916101000a81548173ffffffffffffffffffffffffffffffffffffffff021916908373ffffffffffffffffffffffffffffffffffffffff1602179055508073ffffffffffffffffffffffffffffffffffffffff167fffc04f682c7b287e4b552dacd4b833d7c33dc0549cd6da84388408e4830c056260016002604051610497929190610889565b60405180910390a25050565b61187a806108c183390190565b600060ff82169050919050565b6104c6816104b0565b82525050565b60006020820190506104e160008301846104bd565b92915050565b600081519050919050565b600082825260208201905092915050565b6000819050602082019050919050565b600073ffffffffffffffffffffffffffffffffffffffff82169050919050565b600061053e82610513565b9050919050565b61054e81610533565b82525050565b60006105608383610545565b60208301905092915050565b6000602082019050919050565b6000610584826104e7565b61058e81856104f2565b935061059983610503565b8060005b838110156105ca5781516105b18882610554565b97506105bc8361056c565b92505060018101905061059d565b5085935050505092915050565b600060208201905081810360008301526105f18184610579565b905092915050565b600081519050919050565b600082825260208201905092915050565b60005b83811015610633578082015181840152602081019050610618565b60008484015250505050565b6000601f19601f8301169050919050565b600061065b826105f9565b6106658185610604565b9350610675818560208601610615565b61067e8161063f565b840191505092915050565b600060208201905081810360008301526106a38184610650565b905092915050565b6106b481610533565b82525050565b60006020820190506106cf60008301846106ab565b92915050565b600080fd5b6000819050919050565b6106ed816106da565b81146106f857600080fd5b50565b60008135905061070a816106e4565b92915050565b600060208284031215610726576107256106d5565b5b6000610734848285016106fb565b91505092915050565b7f4e487b7100000000000000000000000000000000000000000000000000000000600052602260045260246000fd5b6000600282049050600182168061078457607f821691505b6020821081036107975761079661073d565b5b50919050565b60008190508160005260206000209050919050565b600081546107bf8161076c565b6107c98186610604565b945060018216600081146107e457600181146107fa5761082d565b60ff19831686528115156020028601935061082d565b6108038561079d565b60005b8381101561082557815481890152600182019150602081019050610806565b808801955050505b50505092915050565b6000608082019050818103600083015261085081876107b2565b9050818103602083015261086481866107b2565b905061087360408301856104bd565b61088060608301846106ab565b95945050505050565b600060408201905081810360008301526108a381856107b2565b905081810360208301526108b781846107b2565b9050939250505056fe608060405234801561001057600080fd5b5060405161187a38038061187a833981810160405281019061003291906102c3565b83600090816100419190610583565b5082600190816100519190610583565b5081600260006101000a81548160ff021916908360ff16021790555080600260016101000a81548173ffffffffffffffffffffffffffffffffffffffff021916908373ffffffffffffffffffffffffffffffffffffffff16021790555050505050610655565b6000604051905090565b600080fd5b600080fd5b600080fd5b600080fd5b6000601f19601f8301169050919050565b7f4e487b7100000000000000000000000000000000000000000000000000000000600052604160045260246000fd5b61011e826100d5565b810181811067ffffffffffffffff8211171561013d5761013c6100e6565b5b80604052505050565b60006101506100b7565b905061015c8282610115565b919050565b600067ffffffffffffffff82111561017c5761017b6100e6565b5b610185826100d5565b9050602081019050919050565b60005b838110156101b0578082015181840152602081019050610195565b60008484015250505050565b60006101cf6101ca84610161565b610146565b9050828152602081018484840111156101eb576101ea6100d0565b5b6101f6848285610192565b509392505050565b600082601f830112610213576102126100cb565b5b81516102238482602086016101bc565b91505092915050565b600060ff82169050919050565b6102428161022c565b811461024d57600080fd5b50565b60008151905061025f81610239565b92915050565b600073ffffffffffffffffffffffffffffffffffffffff82169050919050565b600061029082610265565b9050919050565b6102a081610285565b81146102ab57600080fd5b50565b6000815190506102bd81610297565b92915050565b600080600080608085870312156102dd576102dc6100c1565b5b600085015167ffffffffffffffff8111156102fb576102fa6100c6565b5b610307878288016101fe565b945050602085015167ffffffffffffffff811115610328576103276100c6565b5b610334878288016101fe565b935050604061034587828801610250565b9250506060610356878288016102ae565b91505092959194509250565b600081519050919050565b7f4e487b7100000000000000000000000000000000000000000000000000000000600052602260045260246000fd5b600060028204905060018216806103b457607f821691505b6020821081036103c7576103c661036d565b5b50919050565b60008190508160005260206000209050919050565b60006020601f8301049050919050565b600082821b905092915050565b60006008830261042f7fffffffffffffffffffffffffffffffffffffffffffffffffffffffffffffffff826103f2565b61043986836103f2565b95508019841693508086168417925050509392505050565b6000819050919050565b6000819050919050565b600061048061047b61047684610451565b61045b565b610451565b9050919050565b6000819050919050565b61049a83610465565b6104ae6104a682610487565b8484546103ff565b825550505050565b600090565b6104c36104b6565b6104ce818484610491565b505050565b5b818110156104f2576104e76000826104bb565b6001810190506104d4565b5050565b601f82111561053757610508816103cd565b610511846103e2565b81016020851015610520578190505b61053461052c856103e2565b8301826104d3565b50505b505050565b600082821c905092915050565b600061055a6000198460080261053c565b1980831691505092915050565b60006105738383610549565b9150826002028217905092915050565b61058c82610362565b67ffffffffffffffff8111156105a5576105a46100e6565b5b6105af825461039c565b6105ba8282856104f6565b600060209050601f8311600181146105ed57600084156105db578287015190505b6105e58582610567565b86555061064d565b601f1984166105fb866103cd565b60005b82811015610623578489015182556001820191506020850194506020810190506105fe565b86831015610640578489015161063c601f891682610549565b8355505b6001600288020188555050505b505050505050565b611216806106646000396000f3fe608060405234801561001057600080fd5b50600436106100ea5760003560e01c806340c10f191161008c5780638da5cb5b116100665780638da5cb5b1461025f57806395d89b411461027d578063a9059cbb1461029b578063dd62ed3e146102cb576100ea565b806340c10f19146101f757806342966c681461021357806370a082311461022f576100ea565b806323b872dd116100c857806323b872dd1461015b57806327e235e31461018b578063313ce567146101bb5780633eaaf86b146101d9576100ea565b806306fdde03146100ef578063095ea7b31461010d57806318160ddd1461013d575b600080fd5b6100f76102fb565b6040516101049190610e40565b60405180910390f35b61012760048036038101906101229190610efb565b610389565b6040516101349190610f56565b60405180910390f35b61014561047b565b6040516101529190610f80565b60405180910390f35b61017560048036038101906101709190610f9b565b610481565b6040516101829190610f56565b60405180910390f35b6101a560048036038101906101a09190610fee565b61075f565b6040516101b29190610f80565b60405180910390f35b6101c3610777565b6040516101d09190611037565b60405180910390f35b6101e161078a565b6040516101ee9190610f80565b60405180910390f35b610211600480360381019061020c9190610efb565b610794565b005b61022d60048036038101906102289190611052565b6108f4565b005b61024960048036038101906102449190610fee565b610a97565b6040516102569190610f80565b60405180910390f35b610267610ae0565b604051610274919061108e565b60405180910390f35b610285610b06565b6040516102929190610e40565b60405180910390f35b6102b560048036038101906102b09190610efb565b610b94565b6040516102c29190610f56565b60405180910390f35b6102e560048036038101906102e091906110a9565b610d29565b6040516102f29190610f80565b60405180910390f35b6000805461030890611118565b80601f016020809104026020016040519081016040528092919081815260200182805461033490611118565b80156103815780601f1061035657610100808354040283529160200191610381565b820191906000526020600020905b81548152906001019060200180831161036457829003601f168201915b505050505081565b600081600560003373ffffffffffffffffffffffffffffffffffffffff1673ffffffffffffffffffffffffffffffffffffffff16815260200190815260200160002060008573ffffffffffffffffffffffffffffffffffffffff1673ffffffffffffffffffffffffffffffffffffffff168152602001908152602001600020819055508273ffffffffffffffffffffffffffffffffffffffff163373ffffffffffffffffffffffffffffffffffffffff167f8c5be1e5ebec7d5bd14f71427d1e84f3dd0314c0f7b2291e5b200ac8c7c3b925846040516104699190610f80565b60405180910390a36001905092915050565b60035481565b600081600460008673ffffffffffffffffffffffffffffffffffffffff1673ffffffffffffffffffffffffffffffffffffffff16815260200190815260200160002054116104fb576040517f62e890de00000000000000000000000000000000000000000000000000000000815260040160405180910390fd5b81600560008673ffffffffffffffffffffffffffffffffffffffff1673ffffffffffffffffffffffffffffffffffffffff16815260200190815260200160002060003373ffffffffffffffffffffffffffffffffffffffff1673ffffffffffffffffffffffffffffffffffffffff16815260200190815260200160002054116105b0576040517f5afbda2b00000000000000000000000000000000000000000000000000000000815260040160405180910390fd5b81600460008673ffffffffffffffffffffffffffffffffffffffff1673ffffffffffffffffffffffffffffffffffffffff16815260200190815260200160002060008282546105ff9190611178565b9250508190555081600460008573ffffffffffffffffffffffffffffffffffffffff1673ffffffffffffffffffffffffffffffffffffffff168152602001908152602001600020600082825461065591906111ac565b9250508190555081600560008673ffffffffffffffffffffffffffffffffffffffff1673ffffffffffffffffffffffffffffffffffffffff16815260200190815260200160002060003373ffffffffffffffffffffffffffffffffffffffff1673ffffffffffffffffffffffffffffffffffffffff16815260200190815260200160002060008282546106e89190611178565b925050819055508273ffffffffffffffffffffffffffffffffffffffff168473ffffffffffffffffffffffffffffffffffffffff167fddf252ad1be2c89b69c2b068fc378daa952ba7f163c4a11628f55a4df523b3ef8460405161074c9190610f80565b60405180910390a3600190509392505050565b60046020528060005260406000206000915090505481565b600260009054906101000a900460ff1681565b6000600354905090565b600260019054906101000a900473ffffffffffffffffffffffffffffffffffffffff1673ffffffffffffffffffffffffffffffffffffffff163373ffffffffffffffffffffffffffffffffffffffff161461081b576040517ff933864500000000000000000000000000000000000000000000000000000000815260040160405180910390fd5b806003600082825461082d91906111ac565b9250508190555080600460008473ffffffffffffffffffffffffffffffffffffffff1673ffffffffffffffffffffffffffffffffffffffff168152602001908152602001600020600082825461088391906111ac565b925050819055508173ffffffffffffffffffffffffffffffffffffffff16600073ffffffffffffffffffffffffffffffffffffffff167fddf252ad1be2c89b69c2b068fc378daa952ba7f163c4a11628f55a4df523b3ef836040516108e89190610f80565b60405180910390a35050565b3373ffffffffffffffffffffffffffffffffffffffff16600260019054906101000a900473ffffffffffffffffffffffffffffffffffffffff1673ffffffffffffffffffffffffffffffffffffffff161461097b576040517ff933864500000000000000000000000000000000000000000000000000000000815260040160405180910390fd5b806003600082825461098d9190611178565b925050819055508060046000600260019054906101000a900473ffffffffffffffffffffffffffffffffffffffff1673ffffffffffffffffffffffffffffffffffffffff1673ffffffffffffffffffffffffffffffffffffffff1681526020019081526020016000206000828254610a059190611178565b92505081905550600073ffffffffffffffffffffffffffffffffffffffff16600260019054906101000a900473ffffffffffffffffffffffffffffffffffffffff1673ffffffffffffffffffffffffffffffffffffffff167fddf252ad1be2c89b69c2b068fc378daa952ba7f163c4a11628f55a4df523b3ef83604051610a8c9190610f80565b60405180910390a350565b6000600460008373ffffffffffffffffffffffffffffffffffffffff1673ffffffffffffffffffffffffffffffffffffffff168152602001908152602001600020549050919050565b600260019054906101000a900473ffffffffffffffffffffffffffffffffffffffff1681565b60018054610b1390611118565b80601f0160208091040260200160405190810160405280929190818152602001828054610b3f90611118565b8015610b8c5780601f10610b6157610100808354040283529160200191610b8c565b820191906000526020600020905b815481529060010190602001808311610b6f57829003601f168201915b505050505081565b600081600460003373ffffffffffffffffffffffffffffffffffffffff1673ffffffffffffffffffffffffffffffffffffffff1681526020019081526020016000205411610c0e576040517f62e890de00000000000000000000000000000000000000000000000000000000815260040160405180910390fd5b81600460003373ffffffffffffffffffffffffffffffffffffffff1673ffffffffffffffffffffffffffffffffffffffff1681526020019081526020016000206000828254610c5d9190611178565b9250508190555081600460008573ffffffffffffffffffffffffffffffffffffffff1673ffffffffffffffffffffffffffffffffffffffff1681526020019081526020016000206000828254610cb391906111ac565b925050819055508273ffffffffffffffffffffffffffffffffffffffff163373ffffffffffffffffffffffffffffffffffffffff167fddf252ad1be2c89b69c2b068fc378daa952ba7f163c4a11628f55a4df523b3ef84604051610d179190610f80565b60405180910390a36001905092915050565b6000600560008473ffffffffffffffffffffffffffffffffffffffff1673ffffffffffffffffffffffffffffffffffffffff16815260200190815260200160002060008373ffffffffffffffffffffffffffffffffffffffff1673ffffffffffffffffffffffffffffffffffffffff16815260200190815260200160002054905092915050565b600081519050919050565b600082825260208201905092915050565b60005b83811015610dea578082015181840152602081019050610dcf565b60008484015250505050565b6000601f19601f8301169050919050565b6000610e1282610db0565b610e1c8185610dbb565b9350610e2c818560208601610dcc565b610e3581610df6565b840191505092915050565b60006020820190508181036000830152610e5a8184610e07565b905092915050565b600080fd5b600073ffffffffffffffffffffffffffffffffffffffff82169050919050565b6000610e9282610e67565b9050919050565b610ea281610e87565b8114610ead57600080fd5b50565b600081359050610ebf81610e99565b92915050565b6000819050919050565b610ed881610ec5565b8114610ee357600080fd5b50565b600081359050610ef581610ecf565b92915050565b60008060408385031215610f1257610f11610e62565b5b6000610f2085828601610eb0565b9250506020610f3185828601610ee6565b9150509250929050565b60008115159050919050565b610f5081610f3b565b82525050565b6000602082019050610f6b6000830184610f47565b92915050565b610f7a81610ec5565b82525050565b6000602082019050610f956000830184610f71565b92915050565b600080600060608486031215610fb457610fb3610e62565b5b6000610fc286828701610eb0565b9350506020610fd386828701610eb0565b9250506040610fe486828701610ee6565b9150509250925092565b60006020828403121561100457611003610e62565b5b600061101284828501610eb0565b91505092915050565b600060ff82169050919050565b6110318161101b565b82525050565b600060208201905061104c6000830184611028565b92915050565b60006020828403121561106857611067610e62565b5b600061107684828501610ee6565b91505092915050565b61108881610e87565b82525050565b60006020820190506110a3600083018461107f565b92915050565b600080604083850312156110c0576110bf610e62565b5b60006110ce85828601610eb0565b92505060206110df85828601610eb0565b9150509250929050565b7f4e487b7100000000000000000000000000000000000000000000000000000000600052602260045260246000fd5b6000600282049050600182168061113057607f821691505b602082108103611143576111426110e9565b5b50919050565b7f4e487b7100000000000000000000000000000000000000000000000000000000600052601160045260246000fd5b600061118382610ec5565b915061118e83610ec5565b92508282039050818111156111a6576111a5611149565b5b92915050565b60006111b782610ec5565b91506111c283610ec5565b92508282019050808211156111da576111d9611149565b5b9291505056fea264697066735822122065d2958aefac8f75ecd1cd3825d9d53b836b56679c7514e346b1d31542c5564064736f6c634300081c0033a2646970667358221220c27649f58e906093bc4f9c56847ba6e0b4446ec53a0b79858df8f604436655c464736f6c634300081c0033",
  "linkReferences": {},
  "deployedLinkReferences": {}
}