{
    "contractName": "ERC20Token",
    "abi": [
        {
            "inputs": [],
            "stateMutability": "nonpayable",
            "type": "constructor"
        },
        {
            "inputs": [],
            "name": "ALLOWANCE_TOO_LOW",
            "type": "error"
        },
        {
            "inputs": [],
            "name": "NOT_ENOUGH_FUND",
            "type": "error"
        },
        {
            "inputs": [],
            "name": "ONLY_OWNER_CAN_CALL_THIS_FUNCTION",
            "type": "error"
        },
        {
            "anonymous": false,
            "inputs": [
                {
                    "indexed": true,
                    "internalType": "address",
                    "name": "_owner",
                    "type": "address"
                },
                {
                    "indexed": true,
                    "internalType": "address",
                    "name": "_spender",
                    "type": "address"
                },
                {
                    "indexed": false,
                    "internalType": "uint256",
                    "name": "_amount",
                    "type": "uint256"
                }
            ],
            "name": "Approval",
            "type": "event"
        },
        {
            "anonymous": false,
            "inputs": [
                {
                    "indexed": true,
                    "internalType": "address",
                    "name": "_from",
                    "type": "address"
                },
                {
                    "indexed": true,
                    "internalType": "address",
                    "name": "_to",
                    "type": "address"
                },
                {
                    "indexed": false,
                    "internalType": "uint256",
                    "name": "_amount",
                    "type": "uint256"
                }
            ],
            "name": "Transfer",
            "type": "event"
        },
        {
            "inputs": [],
            "name": "_totalSupply",
            "outputs": [
                {
                    "internalType": "uint256",
                    "name": "",
                    "type": "uint256"
                }
            ],
            "stateMutability": "view",
            "type": "function"
        },
        {
            "inputs": [
                {
                    "internalType": "address",
                    "name": "_owner",
                    "type": "address"
                },
                {
                    "internalType": "address",
                    "name": "_spender",
                    "type": "address"
                }
            ],
            "name": "allowance",
            "outputs": [
                {
                    "internalType": "uint256",
                    "name": "",
                    "type": "uint256"
                }
            ],
            "stateMutability": "view",
            "type": "function"
        },
        {
            "inputs": [
                {
                    "internalType": "address",
                    "name": "_spender",
                    "type": "address"
                },
                {
                    "internalType": "uint256",
                    "name": "_amount",
                    "type": "uint256"
                }
            ],
            "name": "approve",
            "outputs": [
                {
                    "internalType": "bool",
                    "name": "",
                    "type": "bool"
                }
            ],
            "stateMutability": "nonpayable",
            "type": "function"
        },
        {
            "inputs": [
                {
                    "internalType": "address",
                    "name": "account",
                    "type": "address"
                }
            ],
            "name": "balanceOf",
            "outputs": [
                {
                    "internalType": "uint256",
                    "name": "",
                    "type": "uint256"
                }
            ],
            "stateMutability": "view",
            "type": "function"
        },
        {
            "inputs": [
                {
                    "internalType": "address",
                    "name": "",
                    "type": "address"
                }
            ],
            "name": "balances",
            "outputs": [
                {
                    "internalType": "uint256",
                    "name": "",
                    "type": "uint256"
                }
            ],
            "stateMutability": "view",
            "type": "function"
        },
        {
            "inputs": [
                {
                    "internalType": "uint256",
                    "name": "_amount",
                    "type": "uint256"
                }
            ],
            "name": "burn",
            "outputs": [],
            "stateMutability": "nonpayable",
            "type": "function"
        },
        {
            "inputs": [
                {
                    "internalType": "address",
                    "name": "_to",
                    "type": "address"
                },
                {
                    "internalType": "uint256",
                    "name": "_amount",
                    "type": "uint256"
                }
            ],
            "name": "mint",
            "outputs": [],
            "stateMutability": "nonpayable",
            "type": "function"
        },
        {
            "inputs": [],
            "name": "totalSupply",
            "outputs": [
                {
                    "internalType": "uint256",
                    "name": "",
                    "type": "uint256"
                }
            ],
            "stateMutability": "view",
            "type": "function"
        },
        {
            "inputs": [
                {
                    "internalType": "address",
                    "name": "_to",
                    "type": "address"
                },
                {
                    "internalType": "uint256",
                    "name": "_amount",
                    "type": "uint256"
                }
            ],
            "name": "transfer",
            "outputs": [
                {
                    "internalType": "bool",
                    "name": "",
                    "type": "bool"
                }
            ],
            "stateMutability": "nonpayable",
            "type": "function"
        },
        {
            "inputs": [
                {
                    "internalType": "address",
                    "name": "_from",
                    "type": "address"
                },
                {
                    "internalType": "address",
                    "name": "_to",
                    "type": "address"
                },
                {
                    "internalType": "uint256",
                    "name": "_amount",
                    "type": "uint256"
                }
            ],
            "name": "transferFrom",
            "outputs": [
                {
                    "internalType": "bool",
                    "name": "",
                    "type": "bool"
                }
            ],
            "stateMutability": "nonpayable",
            "type": "function"
        }
    ],
    "bytecode": "608060405234610118576100135f5461011c565b601f81116100d1575b507f42696c616c4552433230546f6b656e000000000000000000000000000000001e5f5560015461004c9061011c565b601f8111610089575b6008634245544b60e01b016001556012600255600380546001600160a01b031916331790556040516104dd90816101558239f35b60015f52601f0160051c7fb10e2d527612073b26eecdfd717e6a320cf44b4afac2b0732d9fcbe2b7fa0cf6908101905b8181106100c65750610055565b5f81556001016100b9565b5f8052601f0160051c7f290decd9548b62a8d60345a988386fc84ba6bc95484008f6362f93160ef3e563908101905b81811061010d575061001c565b5f8155600101610100565b5f80fd5b90600182811c9216801561014a575b602083101461013657565b634e487b7160e01b5f52602260045260245ffd5b91607f169161012b56fe60806040526004361015610011575f80fd5b5f3560e01c8063095ea7b3146103b457806318160ddd146102a757806323b872dd146102c457806327e235e31461017a5780633eaaf86b146102a757806340c10f191461023957806342966c68146101b257806370a082311461017a578063a9059cbb146100db5763dd62ed3e14610087575f80fd5b346100d75760403660031901126100d7576100a061042d565b6100a8610443565b6001600160a01b039182165f908152600660209081526040808320949093168252928352819020549051908152f35b5f80fd5b346100d75760403660031901126100d7576100f461042d565b60243590335f5260056020528160405f2054111561016b57335f52600560205260405f20610123838254610459565b905560018060a01b031690815f52600560205260405f2061014582825461047a565b90556040519081525f5160206104885f395f51905f5260203392a3602060405160018152f35b633174486f60e11b5f5260045ffd5b346100d75760203660031901126100d7576001600160a01b0361019b61042d565b165f526005602052602060405f2054604051908152f35b346100d75760203660031901126100d7576003546001600160a01b031660043533820361022a575f916101e782600454610459565b6004558252600560205260408220610200828254610459565b90556003546040519182526001600160a01b0316905f5160206104885f395f51905f5290602090a3005b63f933864560e01b5f5260045ffd5b346100d75760403660031901126100d75761025261042d565b6001600160a01b031660243533820361022a575f5160206104885f395f51905f526020826102835f9460045461047a565b600455848452600582526040842061029c82825461047a565b9055604051908152a3005b346100d7575f3660031901126100d7576020600454604051908152f35b346100d75760603660031901126100d7576102dd61042d565b6102e5610443565b6044359160018060a01b031690815f5260056020528260405f2054111561016b575f8281526006602090815260408083203384529091529020548310156103a55760205f5160206104885f395f51905f5291835f526005825260405f2061034d868254610459565b905560018060a01b031693845f526005825260405f2061036e82825461047a565b90555f848152600683526040808220338352845290208054610391908390610459565b9055604051908152a3602060405160018152f35b635afbda2b60e01b5f5260045ffd5b346100d75760403660031901126100d7576103cd61042d565b335f8181526006602090815260408083206001600160a01b03909516808452948252918290206024359081905591519182527f8c5be1e5ebec7d5bd14f71427d1e84f3dd0314c0f7b2291e5b200ac8c7c3b92591a3602060405160018152f35b600435906001600160a01b03821682036100d757565b602435906001600160a01b03821682036100d757565b9190820391821161046657565b634e487b7160e01b5f52601160045260245ffd5b919082018092116104665756feddf252ad1be2c89b69c2b068fc378daa952ba7f163c4a11628f55a4df523b3efa26469706673582212202ff9ba499aff65adc950b75a852d176831e42490ae5b3c17b24fc349fde61bfb64736f6c634300081e0033",
    "sourcePath": "/home/bilal/bilal_projects/Learning/web3bridge/Web3bridge-Web3-Cohort-XIII/onsite-program/submissions/week-4/day-6/day-6-task-2/Bilal_Oyeleke_Soliu/contracts/ERC20.sol",
    "compiler": {
        "name": "solc",
        "version": "0.8.30+commit.73712a01"
    },
    "functionHashes": {
        "_totalSupply()": "3eaaf86b",
        "allowance(address,address)": "dd62ed3e",
        "approve(address,uint256)": "095ea7b3",
        "balanceOf(address)": "70a08231",
        "balances(address)": "27e235e3",
        "burn(uint256)": "42966c68",
        "mint(address,uint256)": "40c10f19",
        "totalSupply()": "18160ddd",
        "transfer(address,uint256)": "a9059cbb",
        "transferFrom(address,address,uint256)": "23b872dd"
    },
    "gasEstimates": {
        "creation": {
            "codeDepositCost": "249000",
            "executionCost": "infinite",
            "totalCost": "infinite"
        },
        "external": {
            "_totalSupply()": "2336",
            "allowance(address,address)": "2760",
            "approve(address,uint256)": "24283",
            "balanceOf(address)": "2552",
            "balances(address)": "2464",
            "burn(uint256)": "infinite",
            "mint(address,uint256)": "infinite",
            "totalSupply()": "2270",
            "transfer(address,uint256)": "infinite",
            "transferFrom(address,address,uint256)": "infinite"
        }
    }
}